{
  "contractName": "MultiSigWallet",
  "abi": [
    {
      "inputs": [
        {
          "internalType": "address[]",
          "name": "_owners",
          "type": "address[]"
        },
        {
          "internalType": "uint256",
          "name": "_numConfirmationsRequired",
          "type": "uint256"
        }
      ],
      "stateMutability": "nonpayable",
      "type": "constructor"
    },
    {
      "anonymous": false,
      "inputs": [
        {
          "indexed": true,
          "internalType": "address",
          "name": "owner",
          "type": "address"
        },
        {
          "indexed": true,
          "internalType": "uint256",
          "name": "txIndex",
          "type": "uint256"
        }
      ],
      "name": "ConfirmTransaction",
      "type": "event"
    },
    {
      "anonymous": false,
      "inputs": [
        {
          "indexed": true,
          "internalType": "address",
          "name": "sender",
          "type": "address"
        },
        {
          "indexed": false,
          "internalType": "uint256",
          "name": "amount",
          "type": "uint256"
        },
        {
          "indexed": false,
          "internalType": "uint256",
          "name": "balance",
          "type": "uint256"
        }
      ],
      "name": "Deposit",
      "type": "event"
    },
    {
      "anonymous": false,
      "inputs": [
        {
          "indexed": true,
          "internalType": "address",
          "name": "owner",
          "type": "address"
        },
        {
          "indexed": true,
          "internalType": "uint256",
          "name": "txIndex",
          "type": "uint256"
        }
      ],
      "name": "ExecuteTransaction",
      "type": "event"
    },
    {
      "anonymous": false,
      "inputs": [
        {
          "indexed": true,
          "internalType": "address",
          "name": "owner",
          "type": "address"
        },
        {
          "indexed": true,
          "internalType": "uint256",
          "name": "txIndex",
          "type": "uint256"
        }
      ],
      "name": "RevokeConfirmation",
      "type": "event"
    },
    {
      "anonymous": false,
      "inputs": [
        {
          "indexed": true,
          "internalType": "address",
          "name": "owner",
          "type": "address"
        },
        {
          "indexed": true,
          "internalType": "uint256",
          "name": "txIndex",
          "type": "uint256"
        },
        {
          "indexed": true,
          "internalType": "address",
          "name": "to",
          "type": "address"
        },
        {
          "indexed": false,
          "internalType": "uint256",
          "name": "value",
          "type": "uint256"
        },
        {
          "indexed": false,
          "internalType": "bytes",
          "name": "data",
          "type": "bytes"
        }
      ],
      "name": "SubmitTransaction",
      "type": "event"
    },
    {
      "stateMutability": "payable",
      "type": "fallback",
      "payable": true
    },
    {
      "inputs": [
        {
          "internalType": "address",
          "name": "",
          "type": "address"
        }
      ],
      "name": "isConfirmed",
      "outputs": [
        {
          "internalType": "bool",
          "name": "",
          "type": "bool"
        }
      ],
      "stateMutability": "view",
      "type": "function",
      "constant": true
    },
    {
      "inputs": [
        {
          "internalType": "address",
          "name": "",
          "type": "address"
        }
      ],
      "name": "isOwner",
      "outputs": [
        {
          "internalType": "bool",
          "name": "",
          "type": "bool"
        }
      ],
      "stateMutability": "view",
      "type": "function",
      "constant": true
    },
    {
      "inputs": [],
      "name": "numConfirmationsRequired",
      "outputs": [
        {
          "internalType": "uint256",
          "name": "",
          "type": "uint256"
        }
      ],
      "stateMutability": "view",
      "type": "function",
      "constant": true
    },
    {
      "inputs": [
        {
          "internalType": "uint256",
          "name": "",
          "type": "uint256"
        }
      ],
      "name": "owners",
      "outputs": [
        {
          "internalType": "address",
          "name": "",
          "type": "address"
        }
      ],
      "stateMutability": "view",
      "type": "function",
      "constant": true
    },
    {
      "inputs": [
        {
          "internalType": "uint256",
          "name": "",
          "type": "uint256"
        }
      ],
      "name": "transactions",
      "outputs": [
        {
          "internalType": "address",
          "name": "to",
          "type": "address"
        },
        {
          "internalType": "uint256",
          "name": "value",
          "type": "uint256"
        },
        {
          "internalType": "bytes",
          "name": "data",
          "type": "bytes"
        },
        {
          "internalType": "bool",
          "name": "executed",
          "type": "bool"
        },
        {
          "internalType": "uint256",
          "name": "numConfirmations",
          "type": "uint256"
        }
      ],
      "stateMutability": "view",
      "type": "function",
      "constant": true
    },
    {
      "stateMutability": "payable",
      "type": "receive",
      "payable": true
    },
    {
      "inputs": [
        {
          "internalType": "address",
          "name": "_to",
          "type": "address"
        },
        {
          "internalType": "uint256",
          "name": "_value",
          "type": "uint256"
        },
        {
          "internalType": "bytes",
          "name": "_data",
          "type": "bytes"
        }
      ],
      "name": "submitTransaction",
      "outputs": [],
      "stateMutability": "nonpayable",
      "type": "function"
    },
    {
      "inputs": [
        {
          "internalType": "uint256",
          "name": "_txIndex",
          "type": "uint256"
        }
      ],
      "name": "confirmTransaction",
      "outputs": [],
      "stateMutability": "nonpayable",
      "type": "function"
    },
    {
      "inputs": [
        {
          "internalType": "uint256",
          "name": "_txIndex",
          "type": "uint256"
        }
      ],
      "name": "executeTransaction",
      "outputs": [],
      "stateMutability": "nonpayable",
      "type": "function"
    },
    {
      "inputs": [
        {
          "internalType": "uint256",
          "name": "_txIndex",
          "type": "uint256"
        }
      ],
      "name": "revokeConfirmation",
      "outputs": [],
      "stateMutability": "nonpayable",
      "type": "function"
    },
    {
      "inputs": [
        {
          "internalType": "uint256",
          "name": "_txIndex",
          "type": "uint256"
        }
      ],
      "name": "getTransaction",
      "outputs": [
        {
          "internalType": "address",
          "name": "to",
          "type": "address"
        },
        {
          "internalType": "uint256",
          "name": "value",
          "type": "uint256"
        },
        {
          "internalType": "bytes",
          "name": "data",
          "type": "bytes"
        },
        {
          "internalType": "bool",
          "name": "executed",
          "type": "bool"
        },
        {
          "internalType": "uint256",
          "name": "numConfirmations",
          "type": "uint256"
        }
      ],
      "stateMutability": "view",
      "type": "function",
      "constant": true
    }
  ],
  "bytecode": "0x60806040523480156200001157600080fd5b506040516200212338038062002123833981810160405281019062000037919062000349565b60008251116200007e576040517f08c379a000000000000000000000000000000000000000000000000000000000815260040162000075906200048f565b60405180910390fd5b60008111801562000090575081518111155b620000d2576040517f08c379a0000000000000000000000000000000000000000000000000000000008152600401620000c990620004d3565b60405180910390fd5b60005b8251811015620002695760008382815181106200011b577f4e487b7100000000000000000000000000000000000000000000000000000000600052603260045260246000fd5b60200260200101519050600073ffffffffffffffffffffffffffffffffffffffff168173ffffffffffffffffffffffffffffffffffffffff16141562000198576040517f08c379a00000000000000000000000000000000000000000000000000000000081526004016200018f90620004b1565b60405180910390fd5b60018060008373ffffffffffffffffffffffffffffffffffffffff1673ffffffffffffffffffffffffffffffffffffffff16815260200190815260200160002060006101000a81548160ff0219169083151502179055506000819080600181540180825580915050600190039060005260206000200160009091909190916101000a81548173ffffffffffffffffffffffffffffffffffffffff021916908373ffffffffffffffffffffffffffffffffffffffff1602179055505080806200026090620005a7565b915050620000d5565b5080600281905550505062000687565b6000620002906200028a8462000529565b620004f5565b90508083825260208201905082856020860282011115620002b057600080fd5b60005b85811015620002e45781620002c98882620002ee565b845260208401935060208301925050600181019050620002b3565b5050509392505050565b600081519050620002ff8162000653565b92915050565b600082601f8301126200031757600080fd5b81516200032984826020860162000279565b91505092915050565b60008151905062000343816200066d565b92915050565b600080604083850312156200035d57600080fd5b600083015167ffffffffffffffff8111156200037857600080fd5b620003868582860162000305565b9250506020620003998582860162000332565b9150509250929050565b6000620003b2600f8362000558565b91507f4f776e65727320726571756972656400000000000000000000000000000000006000830152602082019050919050565b6000620003f4600d8362000558565b91507f696e76616c6964206f776e6572000000000000000000000000000000000000006000830152602082019050919050565b60006200043660288362000558565b91507f696e76616c6964206e756d626572206f6620726571756972656420636f6e666960008301527f726d6174696f6e730000000000000000000000000000000000000000000000006020830152604082019050919050565b60006020820190508181036000830152620004aa81620003a3565b9050919050565b60006020820190508181036000830152620004cc81620003e5565b9050919050565b60006020820190508181036000830152620004ee8162000427565b9050919050565b6000604051905081810181811067ffffffffffffffff821117156200051f576200051e62000624565b5b8060405250919050565b600067ffffffffffffffff82111562000547576200054662000624565b5b602082029050602081019050919050565b600082825260208201905092915050565b600062000576826200057d565b9050919050565b600073ffffffffffffffffffffffffffffffffffffffff82169050919050565b6000819050919050565b6000620005b4826200059d565b91507fffffffffffffffffffffffffffffffffffffffffffffffffffffffffffffffff821415620005ea57620005e9620005f5565b5b600182019050919050565b7f4e487b7100000000000000000000000000000000000000000000000000000000600052601160045260246000fd5b7f4e487b7100000000000000000000000000000000000000000000000000000000600052604160045260246000fd5b6200065e8162000569565b81146200066a57600080fd5b50565b62000678816200059d565b81146200068457600080fd5b50565b611a8c80620006976000396000f3fe6080604052600436106100955760003560e01c80639ace38c2116100595780639ace38c21461020f578063c01a8c8414610250578063c642747414610279578063d0549b85146102a2578063ee22610b146102cd5761009c565b8063025e7c27146100ee57806318e4ac351461012b57806320ea8d86146101685780632f54bf6e1461019157806333ea3dc8146101ce5761009c565b3661009c57005b3373ffffffffffffffffffffffffffffffffffffffff167f90890809c654f11d6e72a28fa60149770a0d11ec6c92319d6ceb2bb0a4ea1a1534476040516100e492919061176d565b60405180910390a2005b3480156100fa57600080fd5b50610115600480360381019061011091906112cd565b6102f6565b60405161012291906115b2565b60405180910390f35b34801561013757600080fd5b50610152600480360381019061014d919061123d565b610335565b60405161015f9190611627565b60405180910390f35b34801561017457600080fd5b5061018f600480360381019061018a91906112cd565b610355565b005b34801561019d57600080fd5b506101b860048036038101906101b3919061123d565b610659565b6040516101c59190611627565b60405180910390f35b3480156101da57600080fd5b506101f560048036038101906101f091906112cd565b610679565b6040516102069594939291906115cd565b60405180910390f35b34801561021b57600080fd5b50610236600480360381019061023191906112cd565b6107b2565b6040516102479594939291906115cd565b60405180910390f35b34801561025c57600080fd5b50610277600480360381019061027291906112cd565b6108ad565b005b34801561028557600080fd5b506102a0600480360381019061029b9190611266565b610bb4565b005b3480156102ae57600080fd5b506102b7610dbe565b6040516102c49190611722565b60405180910390f35b3480156102d957600080fd5b506102f460048036038101906102ef91906112cd565b610dc4565b005b6000818154811061030657600080fd5b906000526020600020016000915054906101000a900473ffffffffffffffffffffffffffffffffffffffff1681565b60036020528060005260406000206000915054906101000a900460ff1681565b600160003373ffffffffffffffffffffffffffffffffffffffff1673ffffffffffffffffffffffffffffffffffffffff16815260200190815260200160002060009054906101000a900460ff166103e1576040517f08c379a00000000000000000000000000000000000000000000000000000000081526004016103d890611702565b60405180910390fd5b806004805490508110610429576040517f08c379a000000000000000000000000000000000000000000000000000000000815260040161042090611662565b60405180910390fd5b8160048181548110610464577f4e487b7100000000000000000000000000000000000000000000000000000000600052603260045260246000fd5b906000526020600020906005020160030160009054906101000a900460ff16156104c3576040517f08c379a00000000000000000000000000000000000000000000000000000000081526004016104ba906116a2565b60405180910390fd5b6000600484815481106104ff577f4e487b7100000000000000000000000000000000000000000000000000000000600052603260045260246000fd5b90600052602060002090600502019050600360003373ffffffffffffffffffffffffffffffffffffffff1673ffffffffffffffffffffffffffffffffffffffff16815260200190815260200160002060009054906101000a900460ff1661059b576040517f08c379a0000000000000000000000000000000000000000000000000000000008152600401610592906116c2565b60405180910390fd5b60018160040160008282546105b0919061189a565b925050819055506000600360003373ffffffffffffffffffffffffffffffffffffffff1673ffffffffffffffffffffffffffffffffffffffff16815260200190815260200160002060006101000a81548160ff021916908315150217905550833373ffffffffffffffffffffffffffffffffffffffff167ff0dca620e2e81f7841d07bcc105e1704fb01475b278a9d4c236e1c62945edd5560405160405180910390a350505050565b60016020528060005260406000206000915054906101000a900460ff1681565b60008060606000806000600487815481106106bd577f4e487b7100000000000000000000000000000000000000000000000000000000600052603260045260246000fd5b906000526020600020906005020190508060000160009054906101000a900473ffffffffffffffffffffffffffffffffffffffff168160010154826002018360030160009054906101000a900460ff16846004015482805461071e90611958565b80601f016020809104026020016040519081016040528092919081815260200182805461074a90611958565b80156107975780601f1061076c57610100808354040283529160200191610797565b820191906000526020600020905b81548152906001019060200180831161077a57829003601f168201915b50505050509250955095509550955095505091939590929450565b600481815481106107c257600080fd5b90600052602060002090600502016000915090508060000160009054906101000a900473ffffffffffffffffffffffffffffffffffffffff169080600101549080600201805461081190611958565b80601f016020809104026020016040519081016040528092919081815260200182805461083d90611958565b801561088a5780601f1061085f5761010080835404028352916020019161088a565b820191906000526020600020905b81548152906001019060200180831161086d57829003601f168201915b5050505050908060030160009054906101000a900460ff16908060040154905085565b600160003373ffffffffffffffffffffffffffffffffffffffff1673ffffffffffffffffffffffffffffffffffffffff16815260200190815260200160002060009054906101000a900460ff16610939576040517f08c379a000000000000000000000000000000000000000000000000000000000815260040161093090611702565b60405180910390fd5b806004805490508110610981576040517f08c379a000000000000000000000000000000000000000000000000000000000815260040161097890611662565b60405180910390fd5b81600481815481106109bc577f4e487b7100000000000000000000000000000000000000000000000000000000600052603260045260246000fd5b906000526020600020906005020160030160009054906101000a900460ff1615610a1b576040517f08c379a0000000000000000000000000000000000000000000000000000000008152600401610a12906116a2565b60405180910390fd5b82600360003373ffffffffffffffffffffffffffffffffffffffff1673ffffffffffffffffffffffffffffffffffffffff16815260200190815260200160002060009054906101000a900460ff1615610aa9576040517f08c379a0000000000000000000000000000000000000000000000000000000008152600401610aa090611682565b60405180910390fd5b600060048581548110610ae5577f4e487b7100000000000000000000000000000000000000000000000000000000600052603260045260246000fd5b906000526020600020906005020190506001600360003373ffffffffffffffffffffffffffffffffffffffff1673ffffffffffffffffffffffffffffffffffffffff16815260200190815260200160002060006101000a81548160ff0219169083151502179055506001816004016000828254610b629190611844565b92505081905550843373ffffffffffffffffffffffffffffffffffffffff167f5cbe105e36805f7820e291f799d5794ff948af2a5f664e580382defb6339004160405160405180910390a35050505050565b600160003373ffffffffffffffffffffffffffffffffffffffff1673ffffffffffffffffffffffffffffffffffffffff16815260200190815260200160002060009054906101000a900460ff16610c40576040517f08c379a0000000000000000000000000000000000000000000000000000000008152600401610c3790611702565b60405180910390fd5b6000600480549050905060046040518060a001604052808673ffffffffffffffffffffffffffffffffffffffff1681526020018581526020018481526020016000151581526020016000815250908060018154018082558091505060019003906000526020600020906005020160009091909190915060008201518160000160006101000a81548173ffffffffffffffffffffffffffffffffffffffff021916908373ffffffffffffffffffffffffffffffffffffffff160217905550602082015181600101556040820151816002019080519060200190610d23929190611108565b5060608201518160030160006101000a81548160ff0219169083151502179055506080820151816004015550508373ffffffffffffffffffffffffffffffffffffffff16813373ffffffffffffffffffffffffffffffffffffffff167fd5a05bf70715ad82a09a756320284a1b54c9ff74cd0f8cce6219e79b563fe59d8686604051610db092919061173d565b60405180910390a450505050565b60025481565b600160003373ffffffffffffffffffffffffffffffffffffffff1673ffffffffffffffffffffffffffffffffffffffff16815260200190815260200160002060009054906101000a900460ff16610e50576040517f08c379a0000000000000000000000000000000000000000000000000000000008152600401610e4790611702565b60405180910390fd5b806004805490508110610e98576040517f08c379a0000000000000000000000000000000000000000000000000000000008152600401610e8f90611662565b60405180910390fd5b8160048181548110610ed3577f4e487b7100000000000000000000000000000000000000000000000000000000600052603260045260246000fd5b906000526020600020906005020160030160009054906101000a900460ff1615610f32576040517f08c379a0000000000000000000000000000000000000000000000000000000008152600401610f29906116a2565b60405180910390fd5b600060048481548110610f6e577f4e487b7100000000000000000000000000000000000000000000000000000000600052603260045260246000fd5b9060005260206000209060050201905060025481600401541015610fc7576040517f08c379a0000000000000000000000000000000000000000000000000000000008152600401610fbe906116e2565b60405180910390fd5b60018160030160006101000a81548160ff02191690831515021790555060008160000160009054906101000a900473ffffffffffffffffffffffffffffffffffffffff1673ffffffffffffffffffffffffffffffffffffffff16826001015483600201604051611037919061159b565b60006040518083038185875af1925050503d8060008114611074576040519150601f19603f3d011682016040523d82523d6000602084013e611079565b606091505b50509050806110bd576040517f08c379a00000000000000000000000000000000000000000000000000000000081526004016110b490611642565b60405180910390fd5b843373ffffffffffffffffffffffffffffffffffffffff167f5445f318f4f5fcfb66592e68e0cc5822aa15664039bd5f0ffde24c5a8142b1ac60405160405180910390a35050505050565b82805461111490611958565b90600052602060002090601f016020900481019282611136576000855561117d565b82601f1061114f57805160ff191683800117855561117d565b8280016001018555821561117d579182015b8281111561117c578251825591602001919060010190611161565b5b50905061118a919061118e565b5090565b5b808211156111a757600081600090555060010161118f565b5090565b60006111be6111b9846117c7565b611796565b9050828152602081018484840111156111d657600080fd5b6111e1848285611916565b509392505050565b6000813590506111f881611a28565b92915050565b600082601f83011261120f57600080fd5b813561121f8482602086016111ab565b91505092915050565b60008135905061123781611a3f565b92915050565b60006020828403121561124f57600080fd5b600061125d848285016111e9565b91505092915050565b60008060006060848603121561127b57600080fd5b6000611289868287016111e9565b935050602061129a86828701611228565b925050604084013567ffffffffffffffff8111156112b757600080fd5b6112c3868287016111fe565b9150509250925092565b6000602082840312156112df57600080fd5b60006112ed84828501611228565b91505092915050565b6112ff816118ce565b82525050565b61130e816118e0565b82525050565b600061131f8261180c565b6113298185611817565b9350611339818560208601611925565b61134281611a17565b840191505092915050565b6000815461135a81611958565b6113648186611828565b9450600182166000811461137f5760018114611390576113c3565b60ff198316865281860193506113c3565b611399856117f7565b60005b838110156113bb5781548189015260018201915060208101905061139c565b838801955050505b50505092915050565b60006113d9600983611833565b91507f7478206661696c656400000000000000000000000000000000000000000000006000830152602082019050919050565b6000611419601183611833565b91507f747820646f6573206e6f742065786973740000000000000000000000000000006000830152602082019050919050565b6000611459601483611833565b91507f747820616c726561647920636f6e6669726d65640000000000000000000000006000830152602082019050919050565b6000611499601383611833565b91507f747820616c7265616479206578656375746564000000000000000000000000006000830152602082019050919050565b60006114d9601083611833565b91507f7478206e6f7420636f6e6669726d6564000000000000000000000000000000006000830152602082019050919050565b6000611519601183611833565b91507f63616e6e6f7420657865637574652074780000000000000000000000000000006000830152602082019050919050565b6000611559600983611833565b91507f6e6f74206f776e657200000000000000000000000000000000000000000000006000830152602082019050919050565b6115958161190c565b82525050565b60006115a7828461134d565b915081905092915050565b60006020820190506115c760008301846112f6565b92915050565b600060a0820190506115e260008301886112f6565b6115ef602083018761158c565b81810360408301526116018186611314565b90506116106060830185611305565b61161d608083018461158c565b9695505050505050565b600060208201905061163c6000830184611305565b92915050565b6000602082019050818103600083015261165b816113cc565b9050919050565b6000602082019050818103600083015261167b8161140c565b9050919050565b6000602082019050818103600083015261169b8161144c565b9050919050565b600060208201905081810360008301526116bb8161148c565b9050919050565b600060208201905081810360008301526116db816114cc565b9050919050565b600060208201905081810360008301526116fb8161150c565b9050919050565b6000602082019050818103600083015261171b8161154c565b9050919050565b6000602082019050611737600083018461158c565b92915050565b6000604082019050611752600083018561158c565b81810360208301526117648184611314565b90509392505050565b6000604082019050611782600083018561158c565b61178f602083018461158c565b9392505050565b6000604051905081810181811067ffffffffffffffff821117156117bd576117bc6119e8565b5b8060405250919050565b600067ffffffffffffffff8211156117e2576117e16119e8565b5b601f19601f8301169050602081019050919050565b60008190508160005260206000209050919050565b600081519050919050565b600082825260208201905092915050565b600081905092915050565b600082825260208201905092915050565b600061184f8261190c565b915061185a8361190c565b9250827fffffffffffffffffffffffffffffffffffffffffffffffffffffffffffffffff0382111561188f5761188e61198a565b5b828201905092915050565b60006118a58261190c565b91506118b08361190c565b9250828210156118c3576118c261198a565b5b828203905092915050565b60006118d9826118ec565b9050919050565b60008115159050919050565b600073ffffffffffffffffffffffffffffffffffffffff82169050919050565b6000819050919050565b82818337600083830152505050565b60005b83811015611943578082015181840152602081019050611928565b83811115611952576000848401525b50505050565b6000600282049050600182168061197057607f821691505b60208210811415611984576119836119b9565b5b50919050565b7f4e487b7100000000000000000000000000000000000000000000000000000000600052601160045260246000fd5b7f4e487b7100000000000000000000000000000000000000000000000000000000600052602260045260246000fd5b7f4e487b7100000000000000000000000000000000000000000000000000000000600052604160045260246000fd5b6000601f19601f8301169050919050565b611a31816118ce565b8114611a3c57600080fd5b50565b611a488161190c565b8114611a5357600080fd5b5056fea2646970667358221220d1533eb96aac4e4a7c21eba72109180ca3d573be960b17e211a78d172eb6f92164736f6c63430008000033",
  "immutableReferences": {},
  "source": "//SPDX-License-Identifier: MIT\r\n\r\npragma solidity 0.8.0;\r\n\r\ncontract MultiSigWallet {\r\n    event Deposit(address indexed sender, uint256 amount, uint256 balance);\r\n\r\n    event SubmitTransaction(\r\n        address indexed owner,\r\n        uint256 indexed txIndex,\r\n        address indexed to,\r\n        uint256 value,\r\n        bytes data\r\n    );\r\n\r\n    event ConfirmTransaction(address indexed owner, uint256 indexed txIndex);\r\n    event RevokeConfirmation(address indexed owner, uint256 indexed txIndex);\r\n    event ExecuteTransaction(address indexed owner, uint256 indexed txIndex);\r\n\r\n    address[] public owners;\r\n    mapping(address => bool) public isOwner;\r\n    uint256 public numConfirmationsRequired;\r\n\r\n    modifier onlyOwner() {\r\n        require(isOwner[msg.sender], \"not owner\");\r\n        _;\r\n    }\r\n\r\n    modifier txExists(uint256 _txIndex) {\r\n        require(_txIndex < transactions.length, \"tx does not exist\");\r\n        _;\r\n    }\r\n\r\n    modifier notExecuted(uint256 _txIndex) {\r\n        require(!transactions[_txIndex].executed, \"tx already executed\");\r\n        _;\r\n    }\r\n\r\n    modifier notConfirmed(uint256 _txIndex) {\r\n        require(!isConfirmed[msg.sender], \"tx already confirmed\");\r\n        _;\r\n    }\r\n\r\n    struct Transaction {\r\n        address to;\r\n        uint256 value;\r\n        bytes data;\r\n        bool executed;\r\n        uint256 numConfirmations;\r\n    }\r\n\r\n    mapping(address => bool) public isConfirmed;\r\n\r\n    Transaction[] public transactions;\r\n\r\n    constructor(address[] memory _owners, uint256 _numConfirmationsRequired) {\r\n        require(_owners.length > 0, \"Owners required\");\r\n        require(\r\n            _numConfirmationsRequired > 0 &&\r\n                _numConfirmationsRequired <= _owners.length,\r\n            \"invalid number of required confirmations\"\r\n        );\r\n        for (uint256 i = 0; i < _owners.length; i++) {\r\n            address owner = _owners[i];\r\n            require(owner != address(0), \"invalid owner\");\r\n            isOwner[owner] = true;\r\n            owners.push(owner);\r\n        }\r\n        numConfirmationsRequired = _numConfirmationsRequired;\r\n    }\r\n\r\n    fallback() external payable {\r\n        emit Deposit(msg.sender, msg.value, address(this).balance);\r\n    }\r\n\r\n    receive() external payable {}\r\n\r\n    function submitTransaction(\r\n        address _to,\r\n        uint256 _value,\r\n        bytes memory _data\r\n    ) public onlyOwner {\r\n        uint256 txIndex = transactions.length;\r\n        transactions.push(\r\n            Transaction({\r\n                to: _to,\r\n                value: _value,\r\n                data: _data,\r\n                executed: false,\r\n                numConfirmations: 0\r\n            })\r\n        );\r\n\r\n        emit SubmitTransaction(msg.sender, txIndex, _to, _value, _data);\r\n    }\r\n\r\n    function confirmTransaction(uint256 _txIndex)\r\n        public\r\n        onlyOwner\r\n        txExists(_txIndex)\r\n        notExecuted(_txIndex)\r\n        notConfirmed(_txIndex)\r\n    {\r\n        Transaction storage transaction = transactions[_txIndex];\r\n        isConfirmed[msg.sender] = true;\r\n        transaction.numConfirmations += 1;\r\n        emit ConfirmTransaction(msg.sender, _txIndex);\r\n    }\r\n\r\n    function executeTransaction(uint256 _txIndex)\r\n        public\r\n        onlyOwner\r\n        txExists(_txIndex)\r\n        notExecuted(_txIndex)\r\n    {\r\n        Transaction storage transaction = transactions[_txIndex];\r\n        require(\r\n            transaction.numConfirmations >= numConfirmationsRequired,\r\n            \"cannot execute tx\"\r\n        );\r\n        transaction.executed = true;\r\n        (bool success, ) =\r\n            transaction.to.call{value: transaction.value}(transaction.data);\r\n        require(success, \"tx failed\");\r\n\r\n        emit ExecuteTransaction(msg.sender, _txIndex);\r\n    }\r\n\r\n    function revokeConfirmation(uint256 _txIndex)\r\n        public\r\n        onlyOwner\r\n        txExists(_txIndex)\r\n        notExecuted(_txIndex)\r\n    {\r\n        Transaction storage transaction = transactions[_txIndex];\r\n        require(isConfirmed[msg.sender], \"tx not confirmed\");\r\n        transaction.numConfirmations -= 1;\r\n        isConfirmed[msg.sender] = false;\r\n        emit RevokeConfirmation(msg.sender, _txIndex);\r\n    }\r\n\r\n    function getTransaction(uint256 _txIndex)\r\n        public\r\n        view\r\n        returns (\r\n            address to,\r\n            uint256 value,\r\n            bytes memory data,\r\n            bool executed,\r\n            uint256 numConfirmations\r\n        )\r\n    {\r\n        Transaction storage transaction = transactions[_txIndex];\r\n        return (\r\n            transaction.to,\r\n            transaction.value,\r\n            transaction.data,\r\n            transaction.executed,\r\n            transaction.numConfirmations\r\n        );\r\n    }\r\n}\r\n",
  "sourcePath": "D:/ETH/multi-sig-wallet/contracts/MultiSigWallet.sol",
  "compiler": {
    "name": "solc",
    "version": "0.8.0+commit.c7dfd78e.Emscripten.clang"
  },
  "schemaVersion": "3.3.4",
  "updatedAt": "2021-03-10T03:02:24.196Z",
  "networkType": "ethereum",
  "devdoc": {
    "kind": "dev",
    "methods": {},
    "version": 1
  },
  "userdoc": {
    "kind": "user",
    "methods": {},
    "version": 1
  }
}